{
  "_format": "hh-sol-artifact-1",
  "contractName": "BuyMeACoffee",
  "sourceName": "contracts/BuyMeACoffee.sol",
  "abi": [
    {
      "inputs": [],
      "stateMutability": "nonpayable",
      "type": "constructor"
    },
    {
      "anonymous": false,
      "inputs": [
        {
          "indexed": true,
          "internalType": "address",
          "name": "from",
          "type": "address"
        },
        {
          "indexed": true,
          "internalType": "uint256",
          "name": "timestamp",
          "type": "uint256"
        },
        {
          "indexed": false,
          "internalType": "string",
          "name": "name",
          "type": "string"
        },
        {
          "indexed": false,
          "internalType": "string",
          "name": "message",
          "type": "string"
        }
      ],
      "name": "NewMemo",
      "type": "event"
    },
    {
      "inputs": [
        {
          "internalType": "string",
          "name": "_name",
          "type": "string"
        },
        {
          "internalType": "string",
          "name": "_message",
          "type": "string"
        }
      ],
      "name": "buyCoffee",
      "outputs": [],
      "stateMutability": "payable",
      "type": "function"
    },
    {
      "inputs": [],
      "name": "getMemos",
      "outputs": [
        {
          "components": [
            {
              "internalType": "address",
              "name": "from",
              "type": "address"
            },
            {
              "internalType": "uint256",
              "name": "timestamp",
              "type": "uint256"
            },
            {
              "internalType": "string",
              "name": "name",
              "type": "string"
            },
            {
              "internalType": "string",
              "name": "message",
              "type": "string"
            }
          ],
          "internalType": "struct BuyMeACoffee.Memo[]",
          "name": "",
          "type": "tuple[]"
        }
      ],
      "stateMutability": "view",
      "type": "function"
    },
    {
      "inputs": [],
      "name": "withdrawTips",
      "outputs": [],
      "stateMutability": "nonpayable",
      "type": "function"
    }
  ],
  "bytecode": "0x608060405234801561001057600080fd5b5033600160006101000a81548173ffffffffffffffffffffffffffffffffffffffff021916908373ffffffffffffffffffffffffffffffffffffffff160217905550610a64806100616000396000f3fe6080604052600436106100345760003560e01c8063204206e1146100395780633aaa74b214610055578063865c51721461006c575b600080fd5b610053600480360381019061004e919061056e565b610097565b005b34801561006157600080fd5b5061006a61021e565b005b34801561007857600080fd5b50610081610280565b60405161008e9190610780565b60405180910390f35b600034116100da576040517f08c379a00000000000000000000000000000000000000000000000000000000081526004016100d1906107d9565b60405180910390fd5b600060405180608001604052803373ffffffffffffffffffffffffffffffffffffffff16815260200142815260200184815260200183815250908060018154018082558091505060019003906000526020600020906004020160009091909190915060008201518160000160006101000a81548173ffffffffffffffffffffffffffffffffffffffff021916908373ffffffffffffffffffffffffffffffffffffffff1602179055506020820151816001015560408201518160020190805190602001906101a9929190610463565b5060608201518160030190805190602001906101c6929190610463565b505050423373ffffffffffffffffffffffffffffffffffffffff167fc56140e05f516509ae28110e0f72e17558a7561630dad2647c3ae87d986e365c84846040516102129291906107a2565b60405180910390a35050565b600160009054906101000a900473ffffffffffffffffffffffffffffffffffffffff1673ffffffffffffffffffffffffffffffffffffffff166108fc479081150290604051600060405180830381858888f1935050505061027e57600080fd5b565b60606000805480602002602001604051908101604052809291908181526020016000905b8282101561045a57838290600052602060002090600402016040518060800160405290816000820160009054906101000a900473ffffffffffffffffffffffffffffffffffffffff1673ffffffffffffffffffffffffffffffffffffffff1673ffffffffffffffffffffffffffffffffffffffff1681526020016001820154815260200160028201805461033790610933565b80601f016020809104026020016040519081016040528092919081815260200182805461036390610933565b80156103b05780601f10610385576101008083540402835291602001916103b0565b820191906000526020600020905b81548152906001019060200180831161039357829003601f168201915b505050505081526020016003820180546103c990610933565b80601f01602080910402602001604051908101604052809291908181526020018280546103f590610933565b80156104425780601f1061041757610100808354040283529160200191610442565b820191906000526020600020905b81548152906001019060200180831161042557829003601f168201915b505050505081525050815260200190600101906102a4565b50505050905090565b82805461046f90610933565b90600052602060002090601f01602090048101928261049157600085556104d8565b82601f106104aa57805160ff19168380011785556104d8565b828001600101855582156104d8579182015b828111156104d75782518255916020019190600101906104bc565b5b5090506104e591906104e9565b5090565b5b808211156105025760008160009055506001016104ea565b5090565b60006105196105148461081e565b6107f9565b90508281526020810184848401111561053157600080fd5b61053c8482856108f1565b509392505050565b600082601f83011261055557600080fd5b8135610565848260208601610506565b91505092915050565b6000806040838503121561058157600080fd5b600083013567ffffffffffffffff81111561059b57600080fd5b6105a785828601610544565b925050602083013567ffffffffffffffff8111156105c457600080fd5b6105d085828601610544565b9150509250929050565b60006105e68383610707565b905092915050565b6105f7816108b5565b82525050565b60006106088261085f565b6106128185610882565b9350836020820285016106248561084f565b8060005b85811015610660578484038952815161064185826105da565b945061064c83610875565b925060208a01995050600181019050610628565b50829750879550505050505092915050565b600061067d8261086a565b6106878185610893565b9350610697818560208601610900565b6106a0816109f4565b840191505092915050565b60006106b68261086a565b6106c081856108a4565b93506106d0818560208601610900565b6106d9816109f4565b840191505092915050565b60006106f1601c836108a4565b91506106fc82610a05565b602082019050919050565b600060808301600083015161071f60008601826105ee565b5060208301516107326020860182610771565b506040830151848203604086015261074a8282610672565b915050606083015184820360608601526107648282610672565b9150508091505092915050565b61077a816108e7565b82525050565b6000602082019050818103600083015261079a81846105fd565b905092915050565b600060408201905081810360008301526107bc81856106ab565b905081810360208301526107d081846106ab565b90509392505050565b600060208201905081810360008301526107f2816106e4565b9050919050565b6000610803610814565b905061080f8282610965565b919050565b6000604051905090565b600067ffffffffffffffff821115610839576108386109c5565b5b610842826109f4565b9050602081019050919050565b6000819050602082019050919050565b600081519050919050565b600081519050919050565b6000602082019050919050565b600082825260208201905092915050565b600082825260208201905092915050565b600082825260208201905092915050565b60006108c0826108c7565b9050919050565b600073ffffffffffffffffffffffffffffffffffffffff82169050919050565b6000819050919050565b82818337600083830152505050565b60005b8381101561091e578082015181840152602081019050610903565b8381111561092d576000848401525b50505050565b6000600282049050600182168061094b57607f821691505b6020821081141561095f5761095e610996565b5b50919050565b61096e826109f4565b810181811067ffffffffffffffff8211171561098d5761098c6109c5565b5b80604052505050565b7f4e487b7100000000000000000000000000000000000000000000000000000000600052602260045260246000fd5b7f4e487b7100000000000000000000000000000000000000000000000000000000600052604160045260246000fd5b6000601f19601f8301169050919050565b7f636f6666656520636f737473206d6f7265207468616e2030204554480000000060008201525056fea2646970667358221220a9fc816069ad340b5e362d04189d74db5b98467380f99d6a9c3a5d081145613c64736f6c63430008040033",
  "linkReferences": {},
  "deployedLinkReferences": {}
}